S00C0000677365672E7372656372
S11300000C944B000C945D000C945D000C945D000A
S11300100C945D000C945D000C945D000C945D00E8
S11300200C945D000C945D000C945D000C943B02F8
S11300300C945D000C945D000C945D000C945D00C8
S11300400C945D000C945D000C945D000C945D00B8
S11300500C945D000C945D000C945D000C945D00A8
S11300600C945D000C945D00084AD73B3BCE016EB6
S113007084BCBFFDC12F3D6C74319ABD56833DDAFB
S11300803D00C77F11BED9E4BB4C3E916BAAAABE0A
S1130090000000803F0011241FBECFEFD8E0DEBF78
S11300A0CDBF21E0A0E0B1E001C01D92AD30B207A8
S11300B0E1F70E94B4010C942F060C9400004F92B7
S11300C05F926F927F928F929F92AF92BF92CF92E4
S11300D0DF92EF92FF920F931F93CF93DF936B0105
S11300E07C01E90166277727641B750B882777FD58
S11300F08095982F0E94DA044B015C01BE01882789
S113010077FD8095982F0E94DA04A50194010E943E
S1130110E8032B013C01B801882777FD8095982FCF
S11301200E94DA0427EE38EF4CEC56E30E94BA053D
S1130130209100013091010140910201509103018D
S11301400E947503A70196010E94BA054B015C0148
S1130150A701960160E070E080E89FE30E947403C9
S1130160A30192010E94BA059B01AC01C501B4012F
S11301700E94750360930001709301018093020152
S113018090930301DF91CF911F910F91FF90EF9016
S1130190DF90CF90BF90AF909F908F907F906F90A3
S11301A05F904F90089585E08A95F1F700000E94D2
S11301B01B0386ED0E942B0380E20E942B038FE039
S11301C00E942B030E9427038FE99FE00197F1F718
S11301D000C000000E941B0386ED0E942B0383E2F3
S11301E00E942B0380E10E942B030E9427030895A1
S11301F08F929F92AF92BF92CF92DF92EF92FF9233
S11302000F931F93CF93DF937C018B01EA010E942C
S11302101B0386ED0E942B0388EA0E942B030E9495
S11302201B0387ED0E942B0381E00E943903882E73
S113023081E00E943903982E81E00E943903A82EA0
S113024081E00E943903B82E81E00E943903C82E50
S113025080E00E943903D82E0E942703682D70E0A5
S11302607929F701718360834A2D50E05B29F801F5
S1130270518340832C2D30E0C9019D2999838883C3
S1130280DF91CF911F910F91FF90EF90DF90CF906E
S1130290BF90AF909F908F90089585E08A95F1F775
S11302A000000E941B0382E30E942B0380E20E9451
S11302B02B0387E40E942B030E94270308958F9247
S11302C09F92AF92BF92CF92DF92EF92FF920F93E1
S11302D01F93CF93DF937C018B01EA010E941B03E0
S11302E082E30E942B0388EA0E942B030E941B03D3
S11302F083E30E942B0381E00E943903882E81E06E
S11303000E943903982E81E00E943903A82E81E0CF
S11303100E943903B82E81E00E943903C82E80E080
S11303200E943903D82E0E942703682D70E0792992
S1130330F701718360834A2D50E05B29F8015183F2
S113034040832C2D30E0C9019D2999838883DF9156
S1130350CF911F910F91FF90EF90DF90CF90BF90BE
S1130360AF909F908F900895CF93DF93CDB7DEB772
S11303702C970FB6F894DEBF0FBECDBF1A82198238
S11303801C821B821E821D8218861F821A86198671
S11303901C861B860E944F030E945B030E940B0372
S11303A00E944D010E94D3000E94F5027894A12C72
S11303B0B12C0F2EF2E39F2EF02D8091040188239F
S11303C0E1F3AE014B5F5F4FBE016D5F7F4FCE0126
S11303D001960E945F01AE01455F5F4FBE01675FFA
S11303E07F4FCE0107960E94F8000F8118852D815A
S11303F03E814B815C8160E070E080E09FE30E947D
S11304005F009B01AC0160E070E0CB010E944A02F6
S11304106B017C0120E030E842EA54E40E94BA0512
S11304200E94A704CB01985F0E94FD0285010F5F23
S11304301F4F950136952795ABE7B4E10E9420063E
S113044096958795989E9001999E300D1124A21639
S1130450B30669F420E030E044E652E4C701B60193
S11304600E94BA050E94A704862F0E946C03109272
S113047004015801A2CF1F920F920FB60F921124BC
S11304808F9381E0809304018F910F900FBE0F90A2
S11304901F9018954F925F926F927F928F929F92C6
S11304A0AF92BF92CF92DF92EF92FF926B017C01E9
S11304B0CA01B901A70196010E9474034B015C01B2
S11304C020E030E0A9010E94BA0520910901309191
S11304D00A0140910B0150910C010E9475036B01BC
S11304E07C0120E030E048E453E40E94AF05181694
S11304F05CF020E030E048E453ECC701B6010E9410
S11305003B04882354F011C00F2EC12CD12CF8E4E5
S1130510EF2EF3E4FF2EF02D08C00F2EC12CD12CAA
S1130520F8E4EF2EF3ECFF2EF02DC0920901D092E7
S11305300A01E0920B01F0920C0120910501309127
S113054006014091070150910801C501B4010E94C0
S1130550740320E030E0A9010E94BA052B013C019C
S11305608092050190920601A0920701B0920801C1
S1130570A5019401C701B6010E947503A30192016C
S11305800E9475036B017C0120E030E040E055E4FB
S11305900E94AF0518165CF020E030E040E055EC16
S11305A0C701B6010E943B0488234CF00FC00F2EF4
S11305B0C12CD12CE12CF5E4FF2EF02D07C00F2E19
S11305C0C12CD12CE12CF5ECFF2EF02DC701B60186
S11305D0FF90EF90DF90CF90BF90AF909F908F905F
S11305E07F906F905F904F9008958CE284B980E57E
S11305F08CBD1DBC84E085B9089515B89F709067C3
S11306009EBD0DB407FEFDCF8EBD0DB407FEFDCF1C
S113061084E085B90895109280008CE08093810075
S113062082E080936F0086BB84E08093890082EE31
S1130630809388000895ECEBF0E084EA8083808165
S1130640882324F0000080818823E4F7089584E956
S11306508093BC0008958093BB00ECEBF0E084E849
S113066080838081882324F0000080818823E4F73C
S11306700895811104C084E88093BC0003C084EC15
S11306808093BC008091BC00882334F0ECEBF0E054
S1130690000080818823E4F78091BB0008958CE0FA
S11306A08093B800E9EBF0E080818C7F808384E064
S11306B08093BC0008951092C50087E68093C4001F
S11306C088E18093C10086E08093C200E0ECF0E012
S11306D080818D7F80830895E0ECF0E0908195FF28
S11306E0FDCF8093C60008955058BB27AA270ED08B
S11306F0FCC1EDD130F0F2D120F031F49F3F11F480
S11307001EF4BDC10EF4E095E7FBB3C1E92FFED1A1
S113071080F3BA17620773078407950718F071F41A
S11307209EF516C20EF4E0950B2EBA2FA02D0B01E8
S1130730B90190010C01CA01A0011124FF27591B22
S113074099F0593F50F4503E68F11A16F040A22F28
S1130750232F342F4427585FF3CF46953795279599
S1130760A795F0405395C9F77EF41F16BA0B620B98
S1130770730B840BBAF09150A1F0FF0FBB1F661FDF
S1130780771F881FC2F70EC0BA0F621F731F841F22
S113079048F4879577956795B795F7959E3F08F048
S11307A0B3CF9395880F08F09927EE0F9795879507
S11307B008958DD158F080E891E009F49EEF8ED130
S11307C028F040E851E059F45EEF09C058C1C0C1B7
S11307D0E92FE0789BD168F3092E052AC1F3261787
S11307E037074807590738F00E2E07F8E02569F057
S11307F0E025E0640AC0EF6307F8009407FADB0120
S1130800B9019D01DC01CA01AD01EF9347D06DD15F
S11308100AD05F91552331F02BED3FE049E450FDC0
S113082049EC63CF0895DF93DD27B92FBF7740E804
S11308305FE31616170648075B0710F4D92F93D108
S11308409F938F937F936F93F8D1E8E6F0E01AD1EA
S11308504CD12F913F914F915F9198D1DD2349F075
S11308609058A2EA2AED3FE049EC5FE3D0785D2797
S11308704DDFDF913AC1D9D008F481E008950CD05E
S113088034C12CD140F023D130F021F45F3F19F072
S1130890F0C051115EC1F3C039D198F39923C9F363
S11308A05523B1F3951B550BBB27AA276217730772
S11308B0840738F09F5F5F4F220F331F441FAA1F26
S11308C0A9F333D00E2E3AF0E0E830D091505040E6
S11308D0E695001CCAF729D0FE2F27D0660F771F94
S11308E0881FBB1F261737074807AB07B0E809F076
S11308F0BB0B802DBF01FF2793585F4F2AF09E3F0B
S1130900510568F0B6C025C15F3FECF3983EDCF3B7
S1130910869577956795B795F7959F5FC9F7880F83
S1130920911D9695879597F90895E1E0660F771FD5
S1130930881FBB1F621773078407BA0720F0621B66
S1130940730B840BBA0BEE1F88F7E095089504D05F
S11309506894B111FEC00895E1D088F09F5790F0DB
S1130960B92F9927B751A0F0D1F0660F771F881FD0
S1130970991F1AF0BA95C9F712C0B13081F0E8D0C6
S1130980B1E00895E5C0672F782F8827B85F39F064
S1130990B93FCCF3869577956795B395D9F73EF42F
S11309A090958095709561957F4F8F4F9F4F0895D7
S11309B0E89409C097FB3EF49095809570956195F5
S11309C07F4F8F4F9F4F9923A9F0F92F96E9BB27AB
S11309D09395F695879577956795B795F111F8CF27
S11309E0FAF4BB0F11F460FF1BC06F5F7F4F8F4F92
S11309F09F4F16C0882311F096E911C0772321F088
S1130A009EE8872F762F05C0662371F096E8862F1F
S1130A1070E060E02AF09A95660F771F881FDAF776
S1130A20880F9695879597F90895990F0008550FA3
S1130A30AA0BE0E8FEEF16161706E807F907C0F060
S1130A4012161306E407F50798F0621B730B840B68
S1130A50950B39F40A2661F0232B242B252B21F442
S1130A6008950A2609F4A140A6958FEF811D811DE2
S1130A70089597F99F6780E870E060E008959FEF1C
S1130A8080EC0895DF93CF931F930F93FF92EF921F
S1130A90DF927B018C01689405C0DA2EEF0176D0D9
S1130AA0FE01E894A5912591359145915591AEF3B8
S1130AB0EF012CDEFE019701A801DA9479F7DF90AB
S1130AC0EF90FF900F911F91CF91DF910895002433
S1130AD00A941616170618060906089500240A949F
S1130AE012161306140605060895092E0394000C25
S1130AF011F4882352F0BB0F40F4BF2B11F460FFB4
S1130B0004C06F5F7F4F8F4F9F4F089557FD9058DC
S1130B10440F551F59F05F3F71F04795880F97FBBD
S1130B20991F61F09F3F79F0879508951216130677
S1130B301406551FF2CF4695F1DF08C016161706A6
S1130B401806991FF1CF86957105610508940895DB
S1130B50E894BB2766277727CB0197F9089565DFCB
S1130B6008F48FEF08959B01AC0160E070E080E829
S1130B709FE385CE0BD0B9CFAADF28F0AFDF18F002
S1130B80952309F076CF7BCF1124E3CFBFDFA0F309
S1130B90959FD1F3950F50E0551F629FF001729F0E
S1130BA0BB27F00DB11D639FAA27F00DB11DAA1F2D
S1130BB0649F6627B00DA11D661F829F2227B00D7A
S1130BC0A11D621F739FB00DA11D621F839FA00D05
S1130BD0611D221F749F3327A00D611D231F849F55
S1130BE0600D211D822F762F6A2F11249F575040AC
S1130BF08AF0E1F088234AF0EE0FFF1FBB1F661F47
S1130C00771F881F91505040A9F79E3F510570F0FF
S1130C1030CF9FCF5F3FECF3983EDCF3869577951A
S1130C206795B795F795E7959F5FC1F7FE2B880FFA
S1130C30911D9695879597F908959B01AC019ACFDC
S1130C40A29FB001B39FC001A39F700D811D112409
S1130C50911DB29F700D811D1124911D0895F8946A
S1050C60FFCFC0
S9030000FC
